S02700004F6E2D64656D616E642054726166666963206C6967687420636F6E74726F6C2E7372656372
S11300000C942A000C94D3020C9447000C944700DF
S11300100C9447000C9447000C9447000C94470040
S11300200C9447000C9447000C9447000C9406036E
S11300300C9447000C9447000C9447000C94470020
S11300400C9447000C9447000C9447000C94470010
S11300500C94470011241FBECFE5D8E0DEBFCDBF0E
S113006010E0A0E6B0E0E2E7F6E002C005900D92F1
S1130070A037B107D9F720E0A0E7B0E001C01D9296
S1130080A837B207E1F70E9432010C9437030C94AD
S1130090000080917200811107C081E0809372009A
S11300A01092710010927000089580917000853054
S11300B051F480917200809371008F5F83708093FC
S11300C07200109270000895CF93DF93C0E0D0E0E7
S11300D013C0CE01880F991F88599F4F0E940301B6
S11300E081110FC0CE01880F991F805A9F4F0E9423
S11300F00301811108C02196C430D10554F380E076
S113010003C081E001C081E0DF91CF910895CF93D6
S1130110DF93C0E0D0E013C0CE01880F991F885947
S11301209F4F0E941B0181110FC0CE01880F991FA0
S1130130805A9F4F0E941B01811108C02196C43030
S1130140D10554F380E003C081E001C081E0DF9178
S1130150CF91089580917200813011F0833019F5A8
S113016090E0880F991F88599F4F0E942701809122
S1130170710090E0880F991F88599F4F0E940F01CA
S11301808091720090E0880F991F805A9F4F0E94BF
S113019027018091710090E0880F991F805A9F4F2A
S11301A00E940F0114C00E9487008091720090E0A9
S11301B0880F991F88599F4F0E940F0180917200E8
S11301C090E0880F991F805A9F4F0E940F018091E1
S11301D070008F5F8093700008950E946400811105
S11301E011C08AEA90E00E94010389E490E00E9431
S11301F0CE020E94C1020E94FA020E94AA000E943A
S11302005500FDCF089541E0FC01618180810E9489
S11302103701882311F081E0089580E0089541E0DA
S1130220FC01618180810E94D701882311F081E063
S1130230089580E0089540E0FC01618180810E947E
S1130240D701882311F081E0089580E00895FC012E
S1130250618180810E947702882311F081E00895F2
S113026080E008950E94ED0080E090E008958830D9
S113027008F091C0623461F118F4613441F08DC02A
S1130280633409F446C0643409F464C086C0413060
S113029071F44AB321E030E0B90102C0660F771F60
S11302A08A95E2F7CB01842B8ABB80E00895411143
S11302B076C04AB321E030E0B90102C0660F771F6F
S11302C08A95E2F7CB01809584238ABB80E0089568
S11302D0413071F447B321E030E0B90102C0660F48
S11302E0771F8A95E2F7CB01842B87BB80E00895C2
S11302F0411157C047B321E030E0B90102C0660F95
S1130300771F8A95E2F7CB018095842387BB80E031
S11303100895413071F444B321E030E0B90102C0E2
S1130320660F771F8A95E2F7CB01842B84BB80E0AC
S11303300895411138C044B321E030E0B90102C04E
S1130340660F771F8A95E2F7CB018095842384BBDF
S113035080E00895413071F441B321E030E0B90107
S113036002C0660F771F8A95E2F7CB01842B81BB0D
S113037080E00895411119C041B321E030E0B90192
S113038002C0660F771F8A95E2F7CB01809584231C
S113039081BB80E0089581E0089582E0089583E0C0
S11303A0089583E0089583E0089583E008958830F4
S11303B008F091C0623461F118F4613441F08DC0E9
S11303C0633409F446C0643409F464C086C041301F
S11303D071F44BB321E030E0B90102C0660F771F1E
S11303E08A95E2F7CB01842B8BBB80E00895411101
S11303F076C04BB321E030E0B90102C0660F771F2D
S11304008A95E2F7CB01809584238BBB80E0089525
S1130410413071F448B321E030E0B90102C0660F05
S1130420771F8A95E2F7CB01842B88BB80E008957F
S1130430411157C048B321E030E0B90102C0660F52
S1130440771F8A95E2F7CB018095842388BB80E0EF
S11304500895413071F445B321E030E0B90102C0A0
S1130460660F771F8A95E2F7CB01842B85BB80E06A
S11304700895411138C045B321E030E0B90102C00C
S1130480660F771F8A95E2F7CB018095842385BB9D
S113049080E00895413071F442B321E030E0B901C5
S11304A002C0660F771F8A95E2F7CB01842B82BBCB
S11304B080E00895411119C042B321E030E0B90150
S11304C002C0660F771F8A95E2F7CB0180958423DB
S11304D082BB80E0089581E0089582E0089583E07E
S11304E0089583E0089583E0089583E008958830B3
S11304F008F043C06234B9F018F4613431F03FC0FD
S11305006334F9F0643459F13AC04BB321E030E07C
S1130510B90102C0660F771F8A95E2F7CB018427E1
S11305208BBB80E0089548B321E030E0B90102C0FC
S1130530660F771F8A95E2F7CB01842788BB80E09A
S1130540089545B321E030E0B90102C0660F771F7A
S11305508A95E2F7CB01842785BB80E0089542B3F6
S113056021E030E0B90102C0660F771F8A95E2F7F7
S1130570CB01842782BB80E0089581E0089582E066
S1130580089582B3846082BB80E48BBF85B78260A8
S113059085BF85B7816085BF789408959093740072
S11305A08093730008951F920F920FB60F92112437
S11305B02F933F934F935F936F937F938F939F9367
S11305C0AF93BF93EF93FF93E0917300F0917400A6
S11305D00995FF91EF91BF91AF919F918F917F9179
S11305E06F915F914F913F912F910F900FBE0F909C
S11305F01F90189512BE81E089BF789485E083BF6F
S11306000895909376008093750008951F920F9239
S11306100FB60F9211242F933F934F935F936F93D1
S11306207F938F939F93AF93BF93EF93FF938091A7
S11306307700803129F4E0917500F09176000995F6
S1130640809177008F708F5F80937700FF91EF9197
S1130650BF91AF919F918F917F916F915F914F91D6
S11306603F912F910F900FBE0F901F901895F89403
S1050670FFCFB6
S11306720042014202420142004101410241014160
S9030000FC
